:02000000802E50
:10003000C292D293C294D295C296D297758ACF7546
:100040008CCF759852758922758DFD53877FD28E1E
:10005000740075813011CCC0E011E5C0E011FEC024
:10006000E075F02795F050028004117680E4311796
:100070003154510F80DC117B510F22743831E774F9
:100080000E31E7740131E7740631E7748631E774A5
:100090008031E75101744E31F45101746F31F451E4
:1000A00001742031F45101746F31F45101746231E3
:1000B000F45101746A31F45101746531F4510174E1
:1000C0006331F45101747431F45101227400D292FD
:1000D0005116C2923093FDD28C308DFDC28CC28DF0
:1000E000042093F3227400D2945116C2943095FDEB
:1000F000D28C308DFDC28CC28D042095F322740009
:10010000D2965116C2963097FDD28C308DFDC28C9E
:10011000C28D042097F3228531F0742B95F075F091
:100120006484E5F075F00A84F9AAF08532F0743938
:1001300095F075F06484E5F075F00A84FBACF08509
:1001400033F0742995F075F06484E5F075F00A8455
:10015000FDAEF022743831E7740E31E7740131E7F7
:10016000740631E7748631E7748031E7744C31F4FA
:10017000743D31F4E9243031F431DFEA243031F4D4
:1001800031DF742D31DF746331F4746D31F4742018
:1001900031F4745731F4743D31F4EB243031F431DF
:1001A000DFEC243031F431DF742D31DF746331F44E
:1001B000746D31F4742031F474C031E7744831F453
:1001C000743D31F4ED243031F431DFEE243031F47C
:1001D00031DF740A31DF746331F4746D31F422302D
:1001E00099FDC299F59922F580C2A3C2A4D2A5C2F5
:1001F000A5510122F580D2A3C2A4D2A5C2A5510166
:100200002278FAD8FE227EFA7FFADEFEDFFE227D19
:10021000C85106DDFC227E05DEFE22780A79FA7AD4
:0A022000FA0000DAFCD9F8D8F42245
:00000001FF
